{
  "contractName": "StoreFile",
  "abi": [
    {
      "anonymous": false,
      "inputs": [
        {
          "indexed": true,
          "internalType": "string",
          "name": "fileId",
          "type": "string"
        },
        {
          "indexed": true,
          "internalType": "address",
          "name": "requester",
          "type": "address"
        },
        {
          "indexed": false,
          "internalType": "uint256",
          "name": "approvalTimestamp",
          "type": "uint256"
        },
        {
          "indexed": false,
          "internalType": "bool",
          "name": "approved",
          "type": "bool"
        },
        {
          "indexed": false,
          "internalType": "string",
          "name": "fileHash",
          "type": "string"
        }
      ],
      "name": "AccessApproved",
      "type": "event"
    },
    {
      "anonymous": false,
      "inputs": [
        {
          "indexed": true,
          "internalType": "string",
          "name": "fileId",
          "type": "string"
        },
        {
          "indexed": true,
          "internalType": "address",
          "name": "requester",
          "type": "address"
        },
        {
          "indexed": false,
          "internalType": "uint256",
          "name": "timestamp",
          "type": "uint256"
        }
      ],
      "name": "AccessRequested",
      "type": "event"
    },
    {
      "anonymous": false,
      "inputs": [
        {
          "indexed": true,
          "internalType": "string",
          "name": "fileId",
          "type": "string"
        },
        {
          "indexed": false,
          "internalType": "string",
          "name": "fileName",
          "type": "string"
        },
        {
          "indexed": false,
          "internalType": "string",
          "name": "userName",
          "type": "string"
        },
        {
          "indexed": true,
          "internalType": "address",
          "name": "uploader",
          "type": "address"
        },
        {
          "indexed": false,
          "internalType": "uint256",
          "name": "timestamp",
          "type": "uint256"
        }
      ],
      "name": "FileUploaded",
      "type": "event"
    },
    {
      "inputs": [
        {
          "internalType": "string",
          "name": "",
          "type": "string"
        },
        {
          "internalType": "uint256",
          "name": "",
          "type": "uint256"
        }
      ],
      "name": "accessRequests",
      "outputs": [
        {
          "internalType": "address",
          "name": "requester",
          "type": "address"
        },
        {
          "internalType": "uint256",
          "name": "timestamp",
          "type": "uint256"
        },
        {
          "internalType": "bool",
          "name": "approved",
          "type": "bool"
        },
        {
          "internalType": "uint256",
          "name": "approvalTimestamp",
          "type": "uint256"
        }
      ],
      "stateMutability": "view",
      "type": "function",
      "constant": true
    },
    {
      "inputs": [
        {
          "internalType": "string",
          "name": "",
          "type": "string"
        }
      ],
      "name": "files",
      "outputs": [
        {
          "internalType": "string",
          "name": "fileName",
          "type": "string"
        },
        {
          "internalType": "string",
          "name": "userName",
          "type": "string"
        },
        {
          "internalType": "address",
          "name": "uploader",
          "type": "address"
        },
        {
          "internalType": "uint256",
          "name": "timestamp",
          "type": "uint256"
        }
      ],
      "stateMutability": "view",
      "type": "function",
      "constant": true
    },
    {
      "inputs": [
        {
          "internalType": "string",
          "name": "fileId",
          "type": "string"
        },
        {
          "internalType": "string",
          "name": "_fileName",
          "type": "string"
        },
        {
          "internalType": "string",
          "name": "userName",
          "type": "string"
        }
      ],
      "name": "uploadFile",
      "outputs": [],
      "stateMutability": "nonpayable",
      "type": "function"
    },
    {
      "inputs": [
        {
          "internalType": "string",
          "name": "_fileId",
          "type": "string"
        }
      ],
      "name": "requestAccess",
      "outputs": [],
      "stateMutability": "nonpayable",
      "type": "function"
    },
    {
      "inputs": [
        {
          "internalType": "string",
          "name": "_fileId",
          "type": "string"
        },
        {
          "internalType": "address",
          "name": "_requester",
          "type": "address"
        },
        {
          "internalType": "bool",
          "name": "_approved",
          "type": "bool"
        },
        {
          "internalType": "string",
          "name": "_hash",
          "type": "string"
        }
      ],
      "name": "approveAccess",
      "outputs": [],
      "stateMutability": "nonpayable",
      "type": "function"
    },
    {
      "inputs": [
        {
          "internalType": "string",
          "name": "_fileId",
          "type": "string"
        }
      ],
      "name": "getAccessRequestsCount",
      "outputs": [
        {
          "internalType": "uint256",
          "name": "",
          "type": "uint256"
        }
      ],
      "stateMutability": "view",
      "type": "function",
      "constant": true
    },
    {
      "inputs": [
        {
          "internalType": "string",
          "name": "_fileId",
          "type": "string"
        },
        {
          "internalType": "uint256",
          "name": "_index",
          "type": "uint256"
        }
      ],
      "name": "getAccessRequest",
      "outputs": [
        {
          "internalType": "address",
          "name": "",
          "type": "address"
        },
        {
          "internalType": "uint256",
          "name": "",
          "type": "uint256"
        },
        {
          "internalType": "bool",
          "name": "",
          "type": "bool"
        },
        {
          "internalType": "uint256",
          "name": "",
          "type": "uint256"
        }
      ],
      "stateMutability": "view",
      "type": "function",
      "constant": true
    }
  ],
  "bytecode": "0x608060405234801561001057600080fd5b506118d9806100206000396000f3fe608060405234801561001057600080fd5b506004361061007d5760003560e01c8063dfca35551161005b578063dfca3555146100d6578063e0f7734414610109578063e775576114610139578063f25117941461016c5761007d565b806310ee1b22146100825780633b54b4841461009e57806392bb481a146100ba575b600080fd5b61009c60048036038101906100979190610f20565b61019f565b005b6100b860048036038101906100b39190610fff565b61054e565b005b6100d460048036038101906100cf919061109e565b610841565b005b6100f060048036038101906100eb919061117b565b610991565b6040516101009493929190611204565b60405180910390f35b610123600480360381019061011e9190610f20565b610af2565b6040516101309190611249565b60405180910390f35b610153600480360381019061014e9190610f20565b610b1d565b60405161016394939291906112ec565b60405180910390f35b6101866004803603810190610181919061117b565b610c93565b6040516101969493929190611204565b60405180910390f35b600073ffffffffffffffffffffffffffffffffffffffff166000826040516101c7919061137b565b908152602001604051809103902060020160009054906101000a900473ffffffffffffffffffffffffffffffffffffffff1673ffffffffffffffffffffffffffffffffffffffff161415610250576040517f08c379a0000000000000000000000000000000000000000000000000000000008152600401610247906113de565b60405180910390fd5b6000600182604051610262919061137b565b9081526020016040518091039020905060005b81805490508110156103e6576000828281548110610296576102956113fe565b5b906000526020600020906004020190503373ffffffffffffffffffffffffffffffffffffffff168160000160009054906101000a900473ffffffffffffffffffffffffffffffffffffffff1673ffffffffffffffffffffffffffffffffffffffff1614156103d2578060020160009054906101000a900460ff1615610350576040517f08c379a000000000000000000000000000000000000000000000000000000000815260040161034790611479565b60405180910390fd5b6000816003015414610397576040517f08c379a000000000000000000000000000000000000000000000000000000000815260040161038e906114e5565b60405180910390fd5b6040517f08c379a00000000000000000000000000000000000000000000000000000000081526004016103c990611577565b60405180910390fd5b5080806103de906115c6565b915050610275565b506001826040516103f7919061137b565b908152602001604051809103902060405180608001604052803373ffffffffffffffffffffffffffffffffffffffff1681526020014281526020016000151581526020016000815250908060018154018082558091505060019003906000526020600020906004020160009091909190915060008201518160000160006101000a81548173ffffffffffffffffffffffffffffffffffffffff021916908373ffffffffffffffffffffffffffffffffffffffff1602179055506020820151816001015560408201518160020160006101000a81548160ff0219169083151502179055506060820151816003015550503373ffffffffffffffffffffffffffffffffffffffff168260405161050b919061137b565b60405180910390207f049be16051612b02110715a3302374f97570623d59144463390959db9054939b426040516105429190611249565b60405180910390a35050565b3373ffffffffffffffffffffffffffffffffffffffff16600085604051610575919061137b565b908152602001604051809103902060020160009054906101000a900473ffffffffffffffffffffffffffffffffffffffff1673ffffffffffffffffffffffffffffffffffffffff16146105fd576040517f08c379a00000000000000000000000000000000000000000000000000000000081526004016105f49061165b565b60405180910390fd5b600060018560405161060f919061137b565b9081526020016040518091039020905060005b81805490508110156107ff578473ffffffffffffffffffffffffffffffffffffffff16828281548110610658576106576113fe565b5b906000526020600020906004020160000160009054906101000a900473ffffffffffffffffffffffffffffffffffffffff1673ffffffffffffffffffffffffffffffffffffffff1614156107ec578181815481106106b9576106b86113fe565b5b906000526020600020906004020160020160009054906101000a900460ff1615610718576040517f08c379a000000000000000000000000000000000000000000000000000000000815260040161070f906116c7565b60405180910390fd5b8382828154811061072c5761072b6113fe565b5b906000526020600020906004020160020160006101000a81548160ff02191690831515021790555042828281548110610768576107676113fe565b5b9060005260206000209060040201600301819055508473ffffffffffffffffffffffffffffffffffffffff16866040516107a2919061137b565b60405180910390207f4f6511414f1061739fd2689ccf2054d7d3fde1cb51843e00f695ac183b884e0a4287876040516107dd939291906116e7565b60405180910390a3505061083b565b80806107f7906115c6565b915050610622565b506040517f08c379a000000000000000000000000000000000000000000000000000000000815260040161083290611771565b60405180910390fd5b50505050565b60405180608001604052808381526020018281526020013373ffffffffffffffffffffffffffffffffffffffff16815260200142815250600084604051610888919061137b565b908152602001604051809103902060008201518160000190805190602001906108b2929190610d23565b5060208201518160010190805190602001906108cf929190610d23565b5060408201518160020160006101000a81548173ffffffffffffffffffffffffffffffffffffffff021916908373ffffffffffffffffffffffffffffffffffffffff160217905550606082015181600301559050503373ffffffffffffffffffffffffffffffffffffffff1683604051610949919061137b565b60405180910390207fffe4107079f83df8ac20cbb03184d54ad733985db3c0f86dad79aaab1b36167b84844260405161098493929190611791565b60405180910390a3505050565b6000806000806001866040516109a7919061137b565b90815260200160405180910390208054905085106109fa576040517f08c379a00000000000000000000000000000000000000000000000000000000081526004016109f190611822565b60405180910390fd5b6000600187604051610a0c919061137b565b90815260200160405180910390208681548110610a2c57610a2b6113fe565b5b90600052602060002090600402016040518060800160405290816000820160009054906101000a900473ffffffffffffffffffffffffffffffffffffffff1673ffffffffffffffffffffffffffffffffffffffff1673ffffffffffffffffffffffffffffffffffffffff168152602001600182015481526020016002820160009054906101000a900460ff161515151581526020016003820154815250509050806000015181602001518260400151836060015194509450945094505092959194509250565b6000600182604051610b04919061137b565b9081526020016040518091039020805490509050919050565b600081805160208101820180518482526020830160208501208183528095505050505050600091509050806000018054610b5690611871565b80601f0160208091040260200160405190810160405280929190818152602001828054610b8290611871565b8015610bcf5780601f10610ba457610100808354040283529160200191610bcf565b820191906000526020600020905b815481529060010190602001808311610bb257829003601f168201915b505050505090806001018054610be490611871565b80601f0160208091040260200160405190810160405280929190818152602001828054610c1090611871565b8015610c5d5780601f10610c3257610100808354040283529160200191610c5d565b820191906000526020600020905b815481529060010190602001808311610c4057829003601f168201915b5050505050908060020160009054906101000a900473ffffffffffffffffffffffffffffffffffffffff16908060030154905084565b6001828051602081018201805184825260208301602085012081835280955050505050508181548110610cc557600080fd5b9060005260206000209060040201600091509150508060000160009054906101000a900473ffffffffffffffffffffffffffffffffffffffff16908060010154908060020160009054906101000a900460ff16908060030154905084565b828054610d2f90611871565b90600052602060002090601f016020900481019282610d515760008555610d98565b82601f10610d6a57805160ff1916838001178555610d98565b82800160010185558215610d98579182015b82811115610d97578251825591602001919060010190610d7c565b5b509050610da59190610da9565b5090565b5b80821115610dc2576000816000905550600101610daa565b5090565b6000604051905090565b600080fd5b600080fd5b600080fd5b600080fd5b6000601f19601f8301169050919050565b7f4e487b7100000000000000000000000000000000000000000000000000000000600052604160045260246000fd5b610e2d82610de4565b810181811067ffffffffffffffff82111715610e4c57610e4b610df5565b5b80604052505050565b6000610e5f610dc6565b9050610e6b8282610e24565b919050565b600067ffffffffffffffff821115610e8b57610e8a610df5565b5b610e9482610de4565b9050602081019050919050565b82818337600083830152505050565b6000610ec3610ebe84610e70565b610e55565b905082815260208101848484011115610edf57610ede610ddf565b5b610eea848285610ea1565b509392505050565b600082601f830112610f0757610f06610dda565b5b8135610f17848260208601610eb0565b91505092915050565b600060208284031215610f3657610f35610dd0565b5b600082013567ffffffffffffffff811115610f5457610f53610dd5565b5b610f6084828501610ef2565b91505092915050565b600073ffffffffffffffffffffffffffffffffffffffff82169050919050565b6000610f9482610f69565b9050919050565b610fa481610f89565b8114610faf57600080fd5b50565b600081359050610fc181610f9b565b92915050565b60008115159050919050565b610fdc81610fc7565b8114610fe757600080fd5b50565b600081359050610ff981610fd3565b92915050565b6000806000806080858703121561101957611018610dd0565b5b600085013567ffffffffffffffff81111561103757611036610dd5565b5b61104387828801610ef2565b945050602061105487828801610fb2565b935050604061106587828801610fea565b925050606085013567ffffffffffffffff81111561108657611085610dd5565b5b61109287828801610ef2565b91505092959194509250565b6000806000606084860312156110b7576110b6610dd0565b5b600084013567ffffffffffffffff8111156110d5576110d4610dd5565b5b6110e186828701610ef2565b935050602084013567ffffffffffffffff81111561110257611101610dd5565b5b61110e86828701610ef2565b925050604084013567ffffffffffffffff81111561112f5761112e610dd5565b5b61113b86828701610ef2565b9150509250925092565b6000819050919050565b61115881611145565b811461116357600080fd5b50565b6000813590506111758161114f565b92915050565b6000806040838503121561119257611191610dd0565b5b600083013567ffffffffffffffff8111156111b0576111af610dd5565b5b6111bc85828601610ef2565b92505060206111cd85828601611166565b9150509250929050565b6111e081610f89565b82525050565b6111ef81611145565b82525050565b6111fe81610fc7565b82525050565b600060808201905061121960008301876111d7565b61122660208301866111e6565b61123360408301856111f5565b61124060608301846111e6565b95945050505050565b600060208201905061125e60008301846111e6565b92915050565b600081519050919050565b600082825260208201905092915050565b60005b8381101561129e578082015181840152602081019050611283565b838111156112ad576000848401525b50505050565b60006112be82611264565b6112c8818561126f565b93506112d8818560208601611280565b6112e181610de4565b840191505092915050565b6000608082019050818103600083015261130681876112b3565b9050818103602083015261131a81866112b3565b905061132960408301856111d7565b61133660608301846111e6565b95945050505050565b600081905092915050565b600061135582611264565b61135f818561133f565b935061136f818560208601611280565b80840191505092915050565b6000611387828461134a565b915081905092915050565b7f46696c6520646f6573206e6f7420657869737400000000000000000000000000600082015250565b60006113c860138361126f565b91506113d382611392565b602082019050919050565b600060208201905081810360008301526113f7816113bb565b9050919050565b7f4e487b7100000000000000000000000000000000000000000000000000000000600052603260045260246000fd5b7f41636365737320616c7265616479206772616e74656400000000000000000000600082015250565b600061146360168361126f565b915061146e8261142d565b602082019050919050565b6000602082019050818103600083015261149281611456565b9050919050565b7f41636365737320616c72656164792072656a6563746564000000000000000000600082015250565b60006114cf60178361126f565b91506114da82611499565b602082019050919050565b600060208201905081810360008301526114fe816114c2565b9050919050565b7f416363657373207265717565737420616c7265616479206d6164652c2070656e60008201527f64696e6720617070726f76616c206f722072656a656374696f6e000000000000602082015250565b6000611561603a8361126f565b915061156c82611505565b604082019050919050565b6000602082019050818103600083015261159081611554565b9050919050565b7f4e487b7100000000000000000000000000000000000000000000000000000000600052601160045260246000fd5b60006115d182611145565b91507fffffffffffffffffffffffffffffffffffffffffffffffffffffffffffffffff82141561160457611603611597565b5b600182019050919050565b7f4f6e6c792075706c6f616465722063616e20617070726f766520616363657373600082015250565b600061164560208361126f565b91506116508261160f565b602082019050919050565b6000602082019050818103600083015261167481611638565b9050919050565b7f5265717565737420616c72656164792070726f63657373656400000000000000600082015250565b60006116b160198361126f565b91506116bc8261167b565b602082019050919050565b600060208201905081810360008301526116e0816116a4565b9050919050565b60006060820190506116fc60008301866111e6565b61170960208301856111f5565b818103604083015261171b81846112b3565b9050949350505050565b7f4163636573732072657175657374206e6f7420666f756e640000000000000000600082015250565b600061175b60188361126f565b915061176682611725565b602082019050919050565b6000602082019050818103600083015261178a8161174e565b9050919050565b600060608201905081810360008301526117ab81866112b3565b905081810360208301526117bf81856112b3565b90506117ce60408301846111e6565b949350505050565b7f496e76616c696420616363657373207265717565737420696e64657800000000600082015250565b600061180c601c8361126f565b9150611817826117d6565b602082019050919050565b6000602082019050818103600083015261183b816117ff565b9050919050565b7f4e487b7100000000000000000000000000000000000000000000000000000000600052602260045260246000fd5b6000600282049050600182168061188957607f821691505b6020821081141561189d5761189c611842565b5b5091905056fea26469706673582212200d61e003f93966044859530c7dc385e4066f38c5ea8710dda5855805d99e95d264736f6c634300080c0033",
  "immutableReferences": {},
  "source": "// SPDX-License-Identifier: GPL-3.0\npragma solidity ^0.8.12;\n\ncontract StoreFile {\n    struct File {\n        string fileName;\n        string userName;\n        address uploader;\n        uint256 timestamp;\n    }\n\n    // Struct to represent an access request\n    struct AccessRequest {\n        address requester;\n        uint256 timestamp;\n        bool approved;\n        uint256 approvalTimestamp;\n    }\n\n    // Mapping from file ID (string) to File struct\n    mapping(string => File) public files;\n\n    // Mapping from file ID (string) to array of access requests\n    mapping(string => AccessRequest[]) public accessRequests;\n\n    // Event emitted when a new file is uploaded\n    event FileUploaded(\n        string indexed fileId,\n        string fileName,\n        string userName,\n        address indexed uploader,\n        uint256 timestamp\n    );\n\n    // Event emitted when an access request is made\n    event AccessRequested(\n        string indexed fileId,\n        address indexed requester,\n        uint256 timestamp\n    );\n\n    // Event emitted when an access request is approved or denied, including the file hash\n    event AccessApproved(\n        string indexed fileId,\n        address indexed requester,\n        uint256 approvalTimestamp,\n        bool approved,\n        string fileHash\n    );\n\n    // Function to upload a new file record with a provided fileId\n    function uploadFile(\n        string memory fileId,\n        string memory _fileName,\n        string memory userName\n    ) public {\n        files[fileId] = File({\n            fileName: _fileName,\n            uploader: msg.sender,\n            timestamp: block.timestamp,\n            userName: userName\n        });\n\n        // Emit the event with all details for transparency\n        emit FileUploaded(fileId, _fileName, userName, msg.sender, block.timestamp);\n    }\n\n    // Function to request access to a file\n    function requestAccess(string memory _fileId) public {\n        require(files[_fileId].uploader != address(0), \"File does not exist\");\n\n        // Check if the user has already requested access\n        AccessRequest[] storage requests = accessRequests[_fileId];\n        for (uint256 i = 0; i < requests.length; i++) {\n            AccessRequest storage existingRequest = requests[i];\n\n            // If the requester already exists, check the status of their request\n            if (existingRequest.requester == msg.sender) {\n                require(!existingRequest.approved, \"Access already granted\");\n                require(existingRequest.approvalTimestamp == 0, \"Access already rejected\");\n                revert(\"Access request already made, pending approval or rejection\");\n            }\n        }\n\n        accessRequests[_fileId].push(AccessRequest({\n            requester: msg.sender,\n            timestamp: block.timestamp,\n            approved: false,\n            approvalTimestamp: 0\n        }));\n\n        // Emit the event for transparency\n        emit AccessRequested(_fileId, msg.sender, block.timestamp);\n    }\n\n    // Function for the owner to approve or deny access and log a hash\n    function approveAccess(string memory _fileId, address _requester, bool _approved, string memory _hash) public {\n        require(files[_fileId].uploader == msg.sender, \"Only uploader can approve access\");\n\n        AccessRequest[] storage requests = accessRequests[_fileId];\n\n        // Find the request made by the requester\n        for (uint256 i = 0; i < requests.length; i++) {\n            if (requests[i].requester == _requester) {\n                require(!requests[i].approved, \"Request already processed\");\n\n                requests[i].approved = _approved;\n                requests[i].approvalTimestamp = block.timestamp;\n\n                // Emit event with the file hash and approval details for transparency\n                emit AccessApproved(_fileId, _requester, block.timestamp, _approved, _hash);\n                return; // Exit the function after finding and processing the request\n            }\n        }\n\n        revert(\"Access request not found\");\n    }\n\n    // Function to get the number of access requests for a file\n    function getAccessRequestsCount(string memory _fileId) public view returns (uint256) {\n        return accessRequests[_fileId].length;\n    }\n\n    // Function to get details of a specific access request\n    function getAccessRequest(string memory _fileId, uint256 _index) public view returns (address, uint256, bool, uint256) {\n        require(_index < accessRequests[_fileId].length, \"Invalid access request index\");\n\n        AccessRequest memory request = accessRequests[_fileId][_index];\n        return (request.requester, request.timestamp, request.approved, request.approvalTimestamp);\n    }\n}\n",
  "sourcePath": "/Users/nguyennam/2023-2024/UOW/CSIT-953/blockchain/backend/solidity/store-file/contracts/StoreFile.sol",
  "compiler": {
    "name": "solc",
    "version": "0.8.12+commit.f00d7308.Emscripten.clang"
  },
  "schemaVersion": "3.4.16",
  "updatedAt": "2024-10-05T05:38:23.960Z",
  "networkType": "ethereum",
  "devdoc": {
    "kind": "dev",
    "methods": {},
    "version": 1
  },
  "userdoc": {
    "kind": "user",
    "methods": {},
    "version": 1
  }
}