{
  "contractName": "StoreFile",
  "abi": [
    {
      "anonymous": false,
      "inputs": [
        {
          "indexed": true,
          "internalType": "bytes32",
          "name": "fileId",
          "type": "bytes32"
        },
        {
          "indexed": true,
          "internalType": "address",
          "name": "requester",
          "type": "address"
        },
        {
          "indexed": false,
          "internalType": "uint256",
          "name": "approvalTimestamp",
          "type": "uint256"
        },
        {
          "indexed": false,
          "internalType": "bool",
          "name": "approved",
          "type": "bool"
        }
      ],
      "name": "AccessApproved",
      "type": "event"
    },
    {
      "anonymous": false,
      "inputs": [
        {
          "indexed": true,
          "internalType": "bytes32",
          "name": "fileId",
          "type": "bytes32"
        },
        {
          "indexed": true,
          "internalType": "address",
          "name": "requester",
          "type": "address"
        },
        {
          "indexed": false,
          "internalType": "uint256",
          "name": "timestamp",
          "type": "uint256"
        }
      ],
      "name": "AccessRequested",
      "type": "event"
    },
    {
      "anonymous": false,
      "inputs": [
        {
          "indexed": true,
          "internalType": "bytes32",
          "name": "fileId",
          "type": "bytes32"
        },
        {
          "indexed": false,
          "internalType": "string",
          "name": "fileName",
          "type": "string"
        },
        {
          "indexed": true,
          "internalType": "address",
          "name": "uploader",
          "type": "address"
        },
        {
          "indexed": false,
          "internalType": "uint256",
          "name": "timestamp",
          "type": "uint256"
        }
      ],
      "name": "FileUploaded",
      "type": "event"
    },
    {
      "inputs": [
        {
          "internalType": "bytes32",
          "name": "",
          "type": "bytes32"
        },
        {
          "internalType": "uint256",
          "name": "",
          "type": "uint256"
        }
      ],
      "name": "accessRequests",
      "outputs": [
        {
          "internalType": "address",
          "name": "requester",
          "type": "address"
        },
        {
          "internalType": "uint256",
          "name": "timestamp",
          "type": "uint256"
        },
        {
          "internalType": "bool",
          "name": "approved",
          "type": "bool"
        },
        {
          "internalType": "uint256",
          "name": "approvalTimestamp",
          "type": "uint256"
        }
      ],
      "stateMutability": "view",
      "type": "function",
      "constant": true
    },
    {
      "inputs": [
        {
          "internalType": "bytes32",
          "name": "",
          "type": "bytes32"
        }
      ],
      "name": "files",
      "outputs": [
        {
          "internalType": "string",
          "name": "fileName",
          "type": "string"
        },
        {
          "internalType": "address",
          "name": "uploader",
          "type": "address"
        },
        {
          "internalType": "uint256",
          "name": "timestamp",
          "type": "uint256"
        }
      ],
      "stateMutability": "view",
      "type": "function",
      "constant": true
    },
    {
      "inputs": [
        {
          "internalType": "string",
          "name": "_fileName",
          "type": "string"
        }
      ],
      "name": "uploadFile",
      "outputs": [
        {
          "internalType": "bytes32",
          "name": "",
          "type": "bytes32"
        }
      ],
      "stateMutability": "nonpayable",
      "type": "function"
    },
    {
      "inputs": [
        {
          "internalType": "bytes32",
          "name": "_fileId",
          "type": "bytes32"
        }
      ],
      "name": "requestAccess",
      "outputs": [],
      "stateMutability": "nonpayable",
      "type": "function"
    },
    {
      "inputs": [
        {
          "internalType": "bytes32",
          "name": "_fileId",
          "type": "bytes32"
        },
        {
          "internalType": "uint256",
          "name": "_requestIndex",
          "type": "uint256"
        },
        {
          "internalType": "bool",
          "name": "_approved",
          "type": "bool"
        }
      ],
      "name": "approveAccess",
      "outputs": [],
      "stateMutability": "nonpayable",
      "type": "function"
    },
    {
      "inputs": [
        {
          "internalType": "bytes32",
          "name": "_fileId",
          "type": "bytes32"
        }
      ],
      "name": "getAccessRequestsCount",
      "outputs": [
        {
          "internalType": "uint256",
          "name": "",
          "type": "uint256"
        }
      ],
      "stateMutability": "view",
      "type": "function",
      "constant": true
    },
    {
      "inputs": [
        {
          "internalType": "bytes32",
          "name": "_fileId",
          "type": "bytes32"
        },
        {
          "internalType": "uint256",
          "name": "_index",
          "type": "uint256"
        }
      ],
      "name": "getAccessRequest",
      "outputs": [
        {
          "internalType": "address",
          "name": "",
          "type": "address"
        },
        {
          "internalType": "uint256",
          "name": "",
          "type": "uint256"
        },
        {
          "internalType": "bool",
          "name": "",
          "type": "bool"
        },
        {
          "internalType": "uint256",
          "name": "",
          "type": "uint256"
        }
      ],
      "stateMutability": "view",
      "type": "function",
      "constant": true
    }
  ],
  "bytecode": "0x608060405234801561001057600080fd5b5061136c806100206000396000f3fe608060405234801561001057600080fd5b506004361061007d5760003560e01c806391ac7c201161005b57806391ac7c201461010157806398c9adff14610134578063d28d520c14610166578063e37ffc30146101825761007d565b80634fb3187414610082578063841fb503146100b25780638e5bb910146100ce575b600080fd5b61009c60048036038101906100979190610ae7565b6101b2565b6040516100a99190610b2d565b60405180910390f35b6100cc60048036038101906100c79190610ae7565b6101d2565b005b6100e860048036038101906100e39190610b74565b6103bd565b6040516100f89493929190610c10565b60405180910390f35b61011b60048036038101906101169190610b74565b610437565b60405161012b9493929190610c10565b60405180910390f35b61014e60048036038101906101499190610ae7565b610582565b60405161015d93929190610cee565b60405180910390f35b610180600480360381019061017b9190610d58565b610654565b005b61019c60048036038101906101979190610ee0565b610878565b6040516101a99190610f38565b60405180910390f35b600060016000838152602001908152602001600020805490509050919050565b600073ffffffffffffffffffffffffffffffffffffffff1660008083815260200190815260200160002060010160009054906101000a900473ffffffffffffffffffffffffffffffffffffffff1673ffffffffffffffffffffffffffffffffffffffff161415610277576040517f08c379a000000000000000000000000000000000000000000000000000000000815260040161026e90610f9f565b60405180910390fd5b6001600082815260200190815260200160002060405180608001604052803373ffffffffffffffffffffffffffffffffffffffff1681526020014281526020016000151581526020016000815250908060018154018082558091505060019003906000526020600020906004020160009091909190915060008201518160000160006101000a81548173ffffffffffffffffffffffffffffffffffffffff021916908373ffffffffffffffffffffffffffffffffffffffff1602179055506020820151816001015560408201518160020160006101000a81548160ff0219169083151502179055506060820151816003015550503373ffffffffffffffffffffffffffffffffffffffff16817f602b72f5dee4fa5a9f62ff4acdc2f859b34a870301d38a84a6c0881d6c20131f426040516103b29190610b2d565b60405180910390a350565b600160205281600052604060002081815481106103d957600080fd5b9060005260206000209060040201600091509150508060000160009054906101000a900473ffffffffffffffffffffffffffffffffffffffff16908060010154908060020160009054906101000a900460ff16908060030154905084565b60008060008060016000878152602001908152602001600020805490508510610495576040517f08c379a000000000000000000000000000000000000000000000000000000000815260040161048c9061100b565b60405180910390fd5b60006001600088815260200190815260200160002086815481106104bc576104bb61102b565b5b90600052602060002090600402016040518060800160405290816000820160009054906101000a900473ffffffffffffffffffffffffffffffffffffffff1673ffffffffffffffffffffffffffffffffffffffff1673ffffffffffffffffffffffffffffffffffffffff168152602001600182015481526020016002820160009054906101000a900460ff161515151581526020016003820154815250509050806000015181602001518260400151836060015194509450945094505092959194509250565b60006020528060005260406000206000915090508060000180546105a590611089565b80601f01602080910402602001604051908101604052809291908181526020018280546105d190611089565b801561061e5780601f106105f35761010080835404028352916020019161061e565b820191906000526020600020905b81548152906001019060200180831161060157829003601f168201915b5050505050908060010160009054906101000a900473ffffffffffffffffffffffffffffffffffffffff16908060020154905083565b3373ffffffffffffffffffffffffffffffffffffffff1660008085815260200190815260200160002060010160009054906101000a900473ffffffffffffffffffffffffffffffffffffffff1673ffffffffffffffffffffffffffffffffffffffff16146106f7576040517f08c379a00000000000000000000000000000000000000000000000000000000081526004016106ee90611107565b60405180910390fd5b6001600084815260200190815260200160002080549050821061074f576040517f08c379a00000000000000000000000000000000000000000000000000000000081526004016107469061100b565b60405180910390fd5b60006001600085815260200190815260200160002083815481106107765761077561102b565b5b906000526020600020906004020190508060020160009054906101000a900460ff16156107d8576040517f08c379a00000000000000000000000000000000000000000000000000000000081526004016107cf90611173565b60405180910390fd5b818160020160006101000a81548160ff0219169083151502179055504281600301819055508060000160009054906101000a900473ffffffffffffffffffffffffffffffffffffffff1673ffffffffffffffffffffffffffffffffffffffff16847feac60aa929f5a66bdd65a172ed29bfaff3386ee7c7762203f248aff649c8fec2428560405161086a929190611193565b60405180910390a350505050565b6000808251116108bd576040517f08c379a00000000000000000000000000000000000000000000000000000000081526004016108b490611208565b60405180910390fd5b60008233426040516020016108d4939291906112cd565b60405160208183030381529060405280519060200120905060405180606001604052808481526020013373ffffffffffffffffffffffffffffffffffffffff16815260200142815250600080838152602001908152602001600020600082015181600001908051906020019061094b9291906109fa565b5060208201518160010160006101000a81548173ffffffffffffffffffffffffffffffffffffffff021916908373ffffffffffffffffffffffffffffffffffffffff160217905550604082015181600201559050503373ffffffffffffffffffffffffffffffffffffffff16817f9ae37ca0c777cb03612248bc66d498dde35f53bd3c7eb870968a983c6b1752fe85426040516109e9929190611306565b60405180910390a380915050919050565b828054610a0690611089565b90600052602060002090601f016020900481019282610a285760008555610a6f565b82601f10610a4157805160ff1916838001178555610a6f565b82800160010185558215610a6f579182015b82811115610a6e578251825591602001919060010190610a53565b5b509050610a7c9190610a80565b5090565b5b80821115610a99576000816000905550600101610a81565b5090565b6000604051905090565b600080fd5b600080fd5b6000819050919050565b610ac481610ab1565b8114610acf57600080fd5b50565b600081359050610ae181610abb565b92915050565b600060208284031215610afd57610afc610aa7565b5b6000610b0b84828501610ad2565b91505092915050565b6000819050919050565b610b2781610b14565b82525050565b6000602082019050610b426000830184610b1e565b92915050565b610b5181610b14565b8114610b5c57600080fd5b50565b600081359050610b6e81610b48565b92915050565b60008060408385031215610b8b57610b8a610aa7565b5b6000610b9985828601610ad2565b9250506020610baa85828601610b5f565b9150509250929050565b600073ffffffffffffffffffffffffffffffffffffffff82169050919050565b6000610bdf82610bb4565b9050919050565b610bef81610bd4565b82525050565b60008115159050919050565b610c0a81610bf5565b82525050565b6000608082019050610c256000830187610be6565b610c326020830186610b1e565b610c3f6040830185610c01565b610c4c6060830184610b1e565b95945050505050565b600081519050919050565b600082825260208201905092915050565b60005b83811015610c8f578082015181840152602081019050610c74565b83811115610c9e576000848401525b50505050565b6000601f19601f8301169050919050565b6000610cc082610c55565b610cca8185610c60565b9350610cda818560208601610c71565b610ce381610ca4565b840191505092915050565b60006060820190508181036000830152610d088186610cb5565b9050610d176020830185610be6565b610d246040830184610b1e565b949350505050565b610d3581610bf5565b8114610d4057600080fd5b50565b600081359050610d5281610d2c565b92915050565b600080600060608486031215610d7157610d70610aa7565b5b6000610d7f86828701610ad2565b9350506020610d9086828701610b5f565b9250506040610da186828701610d43565b9150509250925092565b600080fd5b600080fd5b7f4e487b7100000000000000000000000000000000000000000000000000000000600052604160045260246000fd5b610ded82610ca4565b810181811067ffffffffffffffff82111715610e0c57610e0b610db5565b5b80604052505050565b6000610e1f610a9d565b9050610e2b8282610de4565b919050565b600067ffffffffffffffff821115610e4b57610e4a610db5565b5b610e5482610ca4565b9050602081019050919050565b82818337600083830152505050565b6000610e83610e7e84610e30565b610e15565b905082815260208101848484011115610e9f57610e9e610db0565b5b610eaa848285610e61565b509392505050565b600082601f830112610ec757610ec6610dab565b5b8135610ed7848260208601610e70565b91505092915050565b600060208284031215610ef657610ef5610aa7565b5b600082013567ffffffffffffffff811115610f1457610f13610aac565b5b610f2084828501610eb2565b91505092915050565b610f3281610ab1565b82525050565b6000602082019050610f4d6000830184610f29565b92915050565b7f46696c6520646f6573206e6f7420657869737400000000000000000000000000600082015250565b6000610f89601383610c60565b9150610f9482610f53565b602082019050919050565b60006020820190508181036000830152610fb881610f7c565b9050919050565b7f496e76616c696420616363657373207265717565737420696e64657800000000600082015250565b6000610ff5601c83610c60565b915061100082610fbf565b602082019050919050565b6000602082019050818103600083015261102481610fe8565b9050919050565b7f4e487b7100000000000000000000000000000000000000000000000000000000600052603260045260246000fd5b7f4e487b7100000000000000000000000000000000000000000000000000000000600052602260045260246000fd5b600060028204905060018216806110a157607f821691505b602082108114156110b5576110b461105a565b5b50919050565b7f4f6e6c792075706c6f616465722063616e20617070726f766520616363657373600082015250565b60006110f1602083610c60565b91506110fc826110bb565b602082019050919050565b60006020820190508181036000830152611120816110e4565b9050919050565b7f5265717565737420616c72656164792070726f63657373656400000000000000600082015250565b600061115d601983610c60565b915061116882611127565b602082019050919050565b6000602082019050818103600083015261118c81611150565b9050919050565b60006040820190506111a86000830185610b1e565b6111b56020830184610c01565b9392505050565b7f46696c65206e616d652063616e6e6f7420626520656d70747900000000000000600082015250565b60006111f2601983610c60565b91506111fd826111bc565b602082019050919050565b60006020820190508181036000830152611221816111e5565b9050919050565b600081905092915050565b600061123e82610c55565b6112488185611228565b9350611258818560208601610c71565b80840191505092915050565b60008160601b9050919050565b600061127c82611264565b9050919050565b600061128e82611271565b9050919050565b6112a66112a182610bd4565b611283565b82525050565b6000819050919050565b6112c76112c282610b14565b6112ac565b82525050565b60006112d98286611233565b91506112e58285611295565b6014820191506112f582846112b6565b602082019150819050949350505050565b600060408201905081810360008301526113208185610cb5565b905061132f6020830184610b1e565b939250505056fea2646970667358221220bba18f51ba48eda40e2648851f0476da33fe2b186f60e80cea4297cdd36063f064736f6c634300080c0033",
  "immutableReferences": {},
  "source": "// SPDX-License-Identifier: GPL-3.0\npragma solidity ^0.8.12;\n\ncontract StoreFile {\n//    uint value;\n//\n//    function set(uint v) public{\n//        value = v;\n//    }\n//\n//    function get() public view returns(uint){\n//        return value;\n//    }\n    // Struct to represent a file upload\n    struct File {\n        string fileName;\n        address uploader;\n        uint256 timestamp;\n    }\n\n    // Struct to represent an access request\n    struct AccessRequest {\n        address requester;\n        uint256 timestamp;\n        bool approved;\n        uint256 approvalTimestamp;\n    }\n\n    // Mapping from file ID to File struct\n    mapping(bytes32 => File) public files;\n\n    // Mapping from file ID to array of access requests\n    mapping(bytes32 => AccessRequest[]) public accessRequests;\n\n    // Event emitted when a new file is uploaded\n    event FileUploaded(bytes32 indexed fileId, string fileName, address indexed uploader, uint256 timestamp);\n\n    // Event emitted when an access request is made\n    event AccessRequested(bytes32 indexed fileId, address indexed requester, uint256 timestamp);\n\n    // Event emitted when an access request is approved or denied\n    event AccessApproved(bytes32 indexed fileId, address indexed requester, uint256 approvalTimestamp, bool approved);\n\n    // Function to upload a new file record\n    function uploadFile(string memory _fileName) public returns (bytes32) {\n        require(bytes(_fileName).length > 0, \"File name cannot be empty\");\n\n        bytes32 fileId = keccak256(abi.encodePacked(_fileName, msg.sender, block.timestamp));\n        files[fileId] = File({\n            fileName: _fileName,\n            uploader: msg.sender,\n            timestamp: block.timestamp\n        });\n\n        emit FileUploaded(fileId, _fileName, msg.sender, block.timestamp);\n        return fileId;\n    }\n\n    // Function to request access to a file\n    function requestAccess(bytes32 _fileId) public {\n        require(files[_fileId].uploader != address(0), \"File does not exist\");\n\n        accessRequests[_fileId].push(AccessRequest({\n            requester: msg.sender,\n            timestamp: block.timestamp,\n            approved: false,\n            approvalTimestamp: 0\n        }));\n\n        emit AccessRequested(_fileId, msg.sender, block.timestamp);\n    }\n\n    // Function for the file owner to approve or deny an access request\n    function approveAccess(bytes32 _fileId, uint256 _requestIndex, bool _approved) public {\n        require(files[_fileId].uploader == msg.sender, \"Only uploader can approve access\");\n        require(_requestIndex < accessRequests[_fileId].length, \"Invalid access request index\");\n\n        AccessRequest storage request = accessRequests[_fileId][_requestIndex];\n        require(!request.approved, \"Request already processed\");\n\n        request.approved = _approved;\n        request.approvalTimestamp = block.timestamp;\n\n        emit AccessApproved(_fileId, request.requester, block.timestamp, _approved);\n    }\n\n    // Function to get the number of access requests for a file\n    function getAccessRequestsCount(bytes32 _fileId) public view returns (uint256) {\n        return accessRequests[_fileId].length;\n    }\n\n    // Function to get details of a specific access request\n    function getAccessRequest(bytes32 _fileId, uint256 _index) public view returns (address, uint256, bool, uint256) {\n        require(_index < accessRequests[_fileId].length, \"Invalid access request index\");\n\n        AccessRequest memory request = accessRequests[_fileId][_index];\n        return (request.requester, request.timestamp, request.approved, request.approvalTimestamp);\n    }\n}",
  "sourcePath": "/Users/nguyennam/2023-2024/UOW/CSIT-953/blockchain/solidity/store-file/contracts/StoreFile.sol",
  "compiler": {
    "name": "solc",
    "version": "0.8.12+commit.f00d7308.Emscripten.clang"
  },
  "schemaVersion": "3.4.16",
  "updatedAt": "2024-09-29T07:29:01.578Z",
  "networkType": "ethereum",
  "devdoc": {
    "kind": "dev",
    "methods": {},
    "version": 1
  },
  "userdoc": {
    "kind": "user",
    "methods": {},
    "version": 1
  }
}