{
  "contractName": "StoreFile",
  "abi": [
    {
      "anonymous": false,
      "inputs": [
        {
          "indexed": true,
          "internalType": "string",
          "name": "fileId",
          "type": "string"
        },
        {
          "indexed": true,
          "internalType": "address",
          "name": "requester",
          "type": "address"
        },
        {
          "indexed": false,
          "internalType": "uint256",
          "name": "approvalTimestamp",
          "type": "uint256"
        },
        {
          "indexed": false,
          "internalType": "bool",
          "name": "approved",
          "type": "bool"
        },
        {
          "indexed": false,
          "internalType": "bytes32",
          "name": "fileHash",
          "type": "bytes32"
        }
      ],
      "name": "AccessApproved",
      "type": "event"
    },
    {
      "anonymous": false,
      "inputs": [
        {
          "indexed": true,
          "internalType": "string",
          "name": "fileId",
          "type": "string"
        },
        {
          "indexed": true,
          "internalType": "address",
          "name": "requester",
          "type": "address"
        },
        {
          "indexed": false,
          "internalType": "uint256",
          "name": "timestamp",
          "type": "uint256"
        }
      ],
      "name": "AccessRequested",
      "type": "event"
    },
    {
      "anonymous": false,
      "inputs": [
        {
          "indexed": true,
          "internalType": "string",
          "name": "fileId",
          "type": "string"
        },
        {
          "indexed": false,
          "internalType": "string",
          "name": "fileName",
          "type": "string"
        },
        {
          "indexed": true,
          "internalType": "address",
          "name": "uploader",
          "type": "address"
        },
        {
          "indexed": false,
          "internalType": "uint256",
          "name": "timestamp",
          "type": "uint256"
        }
      ],
      "name": "FileUploaded",
      "type": "event"
    },
    {
      "inputs": [
        {
          "internalType": "string",
          "name": "",
          "type": "string"
        },
        {
          "internalType": "uint256",
          "name": "",
          "type": "uint256"
        }
      ],
      "name": "accessRequests",
      "outputs": [
        {
          "internalType": "address",
          "name": "requester",
          "type": "address"
        },
        {
          "internalType": "uint256",
          "name": "timestamp",
          "type": "uint256"
        },
        {
          "internalType": "bool",
          "name": "approved",
          "type": "bool"
        },
        {
          "internalType": "uint256",
          "name": "approvalTimestamp",
          "type": "uint256"
        }
      ],
      "stateMutability": "view",
      "type": "function",
      "constant": true
    },
    {
      "inputs": [
        {
          "internalType": "string",
          "name": "",
          "type": "string"
        }
      ],
      "name": "files",
      "outputs": [
        {
          "internalType": "string",
          "name": "fileName",
          "type": "string"
        },
        {
          "internalType": "string",
          "name": "userName",
          "type": "string"
        },
        {
          "internalType": "address",
          "name": "uploader",
          "type": "address"
        },
        {
          "internalType": "uint256",
          "name": "timestamp",
          "type": "uint256"
        }
      ],
      "stateMutability": "view",
      "type": "function",
      "constant": true
    },
    {
      "inputs": [
        {
          "internalType": "string",
          "name": "fileId",
          "type": "string"
        },
        {
          "internalType": "string",
          "name": "_fileName",
          "type": "string"
        },
        {
          "internalType": "string",
          "name": "userName",
          "type": "string"
        }
      ],
      "name": "uploadFile",
      "outputs": [],
      "stateMutability": "nonpayable",
      "type": "function"
    },
    {
      "inputs": [
        {
          "internalType": "string",
          "name": "_fileId",
          "type": "string"
        }
      ],
      "name": "requestAccess",
      "outputs": [],
      "stateMutability": "nonpayable",
      "type": "function"
    },
    {
      "inputs": [
        {
          "internalType": "string",
          "name": "_fileId",
          "type": "string"
        },
        {
          "internalType": "address",
          "name": "_requester",
          "type": "address"
        },
        {
          "internalType": "bool",
          "name": "_approved",
          "type": "bool"
        },
        {
          "internalType": "bytes32",
          "name": "_hash",
          "type": "bytes32"
        }
      ],
      "name": "approveAccess",
      "outputs": [],
      "stateMutability": "nonpayable",
      "type": "function"
    },
    {
      "inputs": [
        {
          "internalType": "string",
          "name": "_fileId",
          "type": "string"
        }
      ],
      "name": "getAccessRequestsCount",
      "outputs": [
        {
          "internalType": "uint256",
          "name": "",
          "type": "uint256"
        }
      ],
      "stateMutability": "view",
      "type": "function",
      "constant": true
    },
    {
      "inputs": [
        {
          "internalType": "string",
          "name": "_fileId",
          "type": "string"
        },
        {
          "internalType": "uint256",
          "name": "_index",
          "type": "uint256"
        }
      ],
      "name": "getAccessRequest",
      "outputs": [
        {
          "internalType": "address",
          "name": "",
          "type": "address"
        },
        {
          "internalType": "uint256",
          "name": "",
          "type": "uint256"
        },
        {
          "internalType": "bool",
          "name": "",
          "type": "bool"
        },
        {
          "internalType": "uint256",
          "name": "",
          "type": "uint256"
        }
      ],
      "stateMutability": "view",
      "type": "function",
      "constant": true
    }
  ],
  "bytecode": "0x608060405234801561001057600080fd5b50611ab0806100206000396000f3fe608060405234801561001057600080fd5b506004361061007d5760003560e01c8063dfca35551161005b578063dfca3555146100d6578063e0f7734414610109578063e775576114610139578063f25117941461016c5761007d565b806310ee1b221461008257806362db21c11461009e57806392bb481a146100ba575b600080fd5b61009c60048036038101906100979190611012565b61019f565b005b6100b860048036038101906100b39190611127565b61054e565b005b6100d460048036038101906100cf91906111aa565b610841565b005b6100f060048036038101906100eb9190611287565b610a83565b6040516101009493929190611310565b60405180910390f35b610123600480360381019061011e9190611012565b610be4565b6040516101309190611355565b60405180910390f35b610153600480360381019061014e9190611012565b610c0f565b60405161016394939291906113f8565b60405180910390f35b61018660048036038101906101819190611287565b610d85565b6040516101969493929190611310565b60405180910390f35b600073ffffffffffffffffffffffffffffffffffffffff166000826040516101c79190611487565b908152602001604051809103902060020160009054906101000a900473ffffffffffffffffffffffffffffffffffffffff1673ffffffffffffffffffffffffffffffffffffffff161415610250576040517f08c379a0000000000000000000000000000000000000000000000000000000008152600401610247906114ea565b60405180910390fd5b60006001826040516102629190611487565b9081526020016040518091039020905060005b81805490508110156103e65760008282815481106102965761029561150a565b5b906000526020600020906004020190503373ffffffffffffffffffffffffffffffffffffffff168160000160009054906101000a900473ffffffffffffffffffffffffffffffffffffffff1673ffffffffffffffffffffffffffffffffffffffff1614156103d2578060020160009054906101000a900460ff1615610350576040517f08c379a000000000000000000000000000000000000000000000000000000000815260040161034790611585565b60405180910390fd5b6000816003015414610397576040517f08c379a000000000000000000000000000000000000000000000000000000000815260040161038e906115f1565b60405180910390fd5b6040517f08c379a00000000000000000000000000000000000000000000000000000000081526004016103c990611683565b60405180910390fd5b5080806103de906116d2565b915050610275565b506001826040516103f79190611487565b908152602001604051809103902060405180608001604052803373ffffffffffffffffffffffffffffffffffffffff1681526020014281526020016000151581526020016000815250908060018154018082558091505060019003906000526020600020906004020160009091909190915060008201518160000160006101000a81548173ffffffffffffffffffffffffffffffffffffffff021916908373ffffffffffffffffffffffffffffffffffffffff1602179055506020820151816001015560408201518160020160006101000a81548160ff0219169083151502179055506060820151816003015550503373ffffffffffffffffffffffffffffffffffffffff168260405161050b9190611487565b60405180910390207f049be16051612b02110715a3302374f97570623d59144463390959db9054939b426040516105429190611355565b60405180910390a35050565b3373ffffffffffffffffffffffffffffffffffffffff166000856040516105759190611487565b908152602001604051809103902060020160009054906101000a900473ffffffffffffffffffffffffffffffffffffffff1673ffffffffffffffffffffffffffffffffffffffff16146105fd576040517f08c379a00000000000000000000000000000000000000000000000000000000081526004016105f490611767565b60405180910390fd5b600060018560405161060f9190611487565b9081526020016040518091039020905060005b81805490508110156107ff578473ffffffffffffffffffffffffffffffffffffffff168282815481106106585761065761150a565b5b906000526020600020906004020160000160009054906101000a900473ffffffffffffffffffffffffffffffffffffffff1673ffffffffffffffffffffffffffffffffffffffff1614156107ec578181815481106106b9576106b861150a565b5b906000526020600020906004020160020160009054906101000a900460ff1615610718576040517f08c379a000000000000000000000000000000000000000000000000000000000815260040161070f906117d3565b60405180910390fd5b8382828154811061072c5761072b61150a565b5b906000526020600020906004020160020160006101000a81548160ff021916908315150217905550428282815481106107685761076761150a565b5b9060005260206000209060040201600301819055508473ffffffffffffffffffffffffffffffffffffffff16866040516107a29190611487565b60405180910390207f3909ad0f1452aa4fe0370da7406c1eba1b68f065a007a15a56529e16552c88714287876040516107dd93929190611802565b60405180910390a3505061083b565b80806107f7906116d2565b915050610622565b506040517f08c379a000000000000000000000000000000000000000000000000000000000815260040161083290611885565b60405180910390fd5b50505050565b6000825111610885576040517f08c379a000000000000000000000000000000000000000000000000000000000815260040161087c906118f1565b60405180910390fd5b600073ffffffffffffffffffffffffffffffffffffffff166000846040516108ad9190611487565b908152602001604051809103902060020160009054906101000a900473ffffffffffffffffffffffffffffffffffffffff1673ffffffffffffffffffffffffffffffffffffffff1614610935576040517f08c379a000000000000000000000000000000000000000000000000000000000815260040161092c9061195d565b60405180910390fd5b60405180608001604052808381526020018281526020013373ffffffffffffffffffffffffffffffffffffffff1681526020014281525060008460405161097c9190611487565b908152602001604051809103902060008201518160000190805190602001906109a6929190610e15565b5060208201518160010190805190602001906109c3929190610e15565b5060408201518160020160006101000a81548173ffffffffffffffffffffffffffffffffffffffff021916908373ffffffffffffffffffffffffffffffffffffffff160217905550606082015181600301559050503373ffffffffffffffffffffffffffffffffffffffff1683604051610a3d9190611487565b60405180910390207f62347da9dbafbab1000b0204c6d22965f55a84e57a9e6c796b07d82a0af036518442604051610a7692919061197d565b60405180910390a3505050565b600080600080600186604051610a999190611487565b9081526020016040518091039020805490508510610aec576040517f08c379a0000000000000000000000000000000000000000000000000000000008152600401610ae3906119f9565b60405180910390fd5b6000600187604051610afe9190611487565b90815260200160405180910390208681548110610b1e57610b1d61150a565b5b90600052602060002090600402016040518060800160405290816000820160009054906101000a900473ffffffffffffffffffffffffffffffffffffffff1673ffffffffffffffffffffffffffffffffffffffff1673ffffffffffffffffffffffffffffffffffffffff168152602001600182015481526020016002820160009054906101000a900460ff161515151581526020016003820154815250509050806000015181602001518260400151836060015194509450945094505092959194509250565b6000600182604051610bf69190611487565b9081526020016040518091039020805490509050919050565b600081805160208101820180518482526020830160208501208183528095505050505050600091509050806000018054610c4890611a48565b80601f0160208091040260200160405190810160405280929190818152602001828054610c7490611a48565b8015610cc15780601f10610c9657610100808354040283529160200191610cc1565b820191906000526020600020905b815481529060010190602001808311610ca457829003601f168201915b505050505090806001018054610cd690611a48565b80601f0160208091040260200160405190810160405280929190818152602001828054610d0290611a48565b8015610d4f5780601f10610d2457610100808354040283529160200191610d4f565b820191906000526020600020905b815481529060010190602001808311610d3257829003601f168201915b5050505050908060020160009054906101000a900473ffffffffffffffffffffffffffffffffffffffff16908060030154905084565b6001828051602081018201805184825260208301602085012081835280955050505050508181548110610db757600080fd5b9060005260206000209060040201600091509150508060000160009054906101000a900473ffffffffffffffffffffffffffffffffffffffff16908060010154908060020160009054906101000a900460ff16908060030154905084565b828054610e2190611a48565b90600052602060002090601f016020900481019282610e435760008555610e8a565b82601f10610e5c57805160ff1916838001178555610e8a565b82800160010185558215610e8a579182015b82811115610e89578251825591602001919060010190610e6e565b5b509050610e979190610e9b565b5090565b5b80821115610eb4576000816000905550600101610e9c565b5090565b6000604051905090565b600080fd5b600080fd5b600080fd5b600080fd5b6000601f19601f8301169050919050565b7f4e487b7100000000000000000000000000000000000000000000000000000000600052604160045260246000fd5b610f1f82610ed6565b810181811067ffffffffffffffff82111715610f3e57610f3d610ee7565b5b80604052505050565b6000610f51610eb8565b9050610f5d8282610f16565b919050565b600067ffffffffffffffff821115610f7d57610f7c610ee7565b5b610f8682610ed6565b9050602081019050919050565b82818337600083830152505050565b6000610fb5610fb084610f62565b610f47565b905082815260208101848484011115610fd157610fd0610ed1565b5b610fdc848285610f93565b509392505050565b600082601f830112610ff957610ff8610ecc565b5b8135611009848260208601610fa2565b91505092915050565b60006020828403121561102857611027610ec2565b5b600082013567ffffffffffffffff81111561104657611045610ec7565b5b61105284828501610fe4565b91505092915050565b600073ffffffffffffffffffffffffffffffffffffffff82169050919050565b60006110868261105b565b9050919050565b6110968161107b565b81146110a157600080fd5b50565b6000813590506110b38161108d565b92915050565b60008115159050919050565b6110ce816110b9565b81146110d957600080fd5b50565b6000813590506110eb816110c5565b92915050565b6000819050919050565b611104816110f1565b811461110f57600080fd5b50565b600081359050611121816110fb565b92915050565b6000806000806080858703121561114157611140610ec2565b5b600085013567ffffffffffffffff81111561115f5761115e610ec7565b5b61116b87828801610fe4565b945050602061117c878288016110a4565b935050604061118d878288016110dc565b925050606061119e87828801611112565b91505092959194509250565b6000806000606084860312156111c3576111c2610ec2565b5b600084013567ffffffffffffffff8111156111e1576111e0610ec7565b5b6111ed86828701610fe4565b935050602084013567ffffffffffffffff81111561120e5761120d610ec7565b5b61121a86828701610fe4565b925050604084013567ffffffffffffffff81111561123b5761123a610ec7565b5b61124786828701610fe4565b9150509250925092565b6000819050919050565b61126481611251565b811461126f57600080fd5b50565b6000813590506112818161125b565b92915050565b6000806040838503121561129e5761129d610ec2565b5b600083013567ffffffffffffffff8111156112bc576112bb610ec7565b5b6112c885828601610fe4565b92505060206112d985828601611272565b9150509250929050565b6112ec8161107b565b82525050565b6112fb81611251565b82525050565b61130a816110b9565b82525050565b600060808201905061132560008301876112e3565b61133260208301866112f2565b61133f6040830185611301565b61134c60608301846112f2565b95945050505050565b600060208201905061136a60008301846112f2565b92915050565b600081519050919050565b600082825260208201905092915050565b60005b838110156113aa57808201518184015260208101905061138f565b838111156113b9576000848401525b50505050565b60006113ca82611370565b6113d4818561137b565b93506113e481856020860161138c565b6113ed81610ed6565b840191505092915050565b6000608082019050818103600083015261141281876113bf565b9050818103602083015261142681866113bf565b905061143560408301856112e3565b61144260608301846112f2565b95945050505050565b600081905092915050565b600061146182611370565b61146b818561144b565b935061147b81856020860161138c565b80840191505092915050565b60006114938284611456565b915081905092915050565b7f46696c6520646f6573206e6f7420657869737400000000000000000000000000600082015250565b60006114d460138361137b565b91506114df8261149e565b602082019050919050565b60006020820190508181036000830152611503816114c7565b9050919050565b7f4e487b7100000000000000000000000000000000000000000000000000000000600052603260045260246000fd5b7f41636365737320616c7265616479206772616e74656400000000000000000000600082015250565b600061156f60168361137b565b915061157a82611539565b602082019050919050565b6000602082019050818103600083015261159e81611562565b9050919050565b7f41636365737320616c72656164792072656a6563746564000000000000000000600082015250565b60006115db60178361137b565b91506115e6826115a5565b602082019050919050565b6000602082019050818103600083015261160a816115ce565b9050919050565b7f416363657373207265717565737420616c7265616479206d6164652c2070656e60008201527f64696e6720617070726f76616c206f722072656a656374696f6e000000000000602082015250565b600061166d603a8361137b565b915061167882611611565b604082019050919050565b6000602082019050818103600083015261169c81611660565b9050919050565b7f4e487b7100000000000000000000000000000000000000000000000000000000600052601160045260246000fd5b60006116dd82611251565b91507fffffffffffffffffffffffffffffffffffffffffffffffffffffffffffffffff8214156117105761170f6116a3565b5b600182019050919050565b7f4f6e6c792075706c6f616465722063616e20617070726f766520616363657373600082015250565b600061175160208361137b565b915061175c8261171b565b602082019050919050565b6000602082019050818103600083015261178081611744565b9050919050565b7f5265717565737420616c72656164792070726f63657373656400000000000000600082015250565b60006117bd60198361137b565b91506117c882611787565b602082019050919050565b600060208201905081810360008301526117ec816117b0565b9050919050565b6117fc816110f1565b82525050565b600060608201905061181760008301866112f2565b6118246020830185611301565b61183160408301846117f3565b949350505050565b7f4163636573732072657175657374206e6f7420666f756e640000000000000000600082015250565b600061186f60188361137b565b915061187a82611839565b602082019050919050565b6000602082019050818103600083015261189e81611862565b9050919050565b7f46696c65206e616d652063616e6e6f7420626520656d70747900000000000000600082015250565b60006118db60198361137b565b91506118e6826118a5565b602082019050919050565b6000602082019050818103600083015261190a816118ce565b9050919050565b7f46696c6520494420616c72656164792065786973747300000000000000000000600082015250565b600061194760168361137b565b915061195282611911565b602082019050919050565b600060208201905081810360008301526119768161193a565b9050919050565b6000604082019050818103600083015261199781856113bf565b90506119a660208301846112f2565b9392505050565b7f496e76616c696420616363657373207265717565737420696e64657800000000600082015250565b60006119e3601c8361137b565b91506119ee826119ad565b602082019050919050565b60006020820190508181036000830152611a12816119d6565b9050919050565b7f4e487b7100000000000000000000000000000000000000000000000000000000600052602260045260246000fd5b60006002820490506001821680611a6057607f821691505b60208210811415611a7457611a73611a19565b5b5091905056fea2646970667358221220cb41f6bf7b5d3e55fe2ef5af177b08089c29ee5a20eb5e37d57c3d1145d7a36964736f6c634300080c0033",
  "immutableReferences": {},
  "source": "// SPDX-License-Identifier: GPL-3.0\npragma solidity ^0.8.12;\n\ncontract StoreFile {\n    struct File {\n        string fileName;\n        string userName;\n        address uploader;\n        uint256 timestamp;\n    }\n\n    // Struct to represent an access request\n    struct AccessRequest {\n        address requester;\n        uint256 timestamp;\n        bool approved;\n        uint256 approvalTimestamp;\n    }\n\n    // Mapping from file ID (string) to File struct\n    mapping(string => File) public files;\n\n    // Mapping from file ID (string) to array of access requests\n    mapping(string => AccessRequest[]) public accessRequests;\n\n    // Event emitted when a new file is uploaded\n    event FileUploaded(string indexed fileId, string fileName, address indexed uploader, uint256 timestamp);\n\n    // Event emitted when an access request is made\n    event AccessRequested(string indexed fileId, address indexed requester, uint256 timestamp);\n\n    // Event emitted when an access request is approved or denied, including the hash\n    event AccessApproved(string indexed fileId, address indexed requester, uint256 approvalTimestamp, bool approved, bytes32 fileHash);\n\n    // Function to upload a new file record with a provided fileId\n    function uploadFile(string memory fileId, string memory _fileName, string memory userName) public {\n        require(bytes(_fileName).length > 0, \"File name cannot be empty\");\n        require(files[fileId].uploader == address(0), \"File ID already exists\"); // Ensure file ID is unique\n\n        files[fileId] = File({\n            fileName: _fileName,\n            uploader: msg.sender,\n            timestamp: block.timestamp,\n            userName: userName\n        });\n\n        emit FileUploaded(fileId, _fileName, msg.sender, block.timestamp);\n    }\n\n    // Function to request access to a file\n    function requestAccess(string memory _fileId) public {\n        require(files[_fileId].uploader != address(0), \"File does not exist\");\n\n        // Check if the user has already requested access\n        AccessRequest[] storage requests = accessRequests[_fileId];\n        for (uint256 i = 0; i < requests.length; i++) {\n            AccessRequest storage existingRequest = requests[i];\n\n            // If the requester already exists, check the status of their request\n            if (existingRequest.requester == msg.sender) {\n                require(!existingRequest.approved, \"Access already granted\");\n                require(existingRequest.approvalTimestamp == 0, \"Access already rejected\");\n                revert(\"Access request already made, pending approval or rejection\");\n            }\n        }\n\n        accessRequests[_fileId].push(AccessRequest({\n            requester: msg.sender,\n            timestamp: block.timestamp,\n            approved: false,\n            approvalTimestamp: 0\n        }));\n\n        emit AccessRequested(_fileId, msg.sender, block.timestamp);\n    }\n\n    // Function for the owner to approve or deny access and log a hash\n    function approveAccess(string memory _fileId, address _requester, bool _approved, bytes32 _hash) public {\n        require(files[_fileId].uploader == msg.sender, \"Only uploader can approve access\");\n\n        AccessRequest[] storage requests = accessRequests[_fileId];\n\n        // Find the request made by the requester\n        for (uint256 i = 0; i < requests.length; i++) {\n            if (requests[i].requester == _requester) {\n                require(!requests[i].approved, \"Request already processed\");\n\n                requests[i].approved = _approved;\n                requests[i].approvalTimestamp = block.timestamp;\n\n                // Emit event with the file hash and approval details\n                emit AccessApproved(_fileId, _requester, block.timestamp, _approved, _hash);\n                return; // Exit the function after finding and processing the request\n            }\n        }\n\n        revert(\"Access request not found\");\n    }\n\n    // Function to get the number of access requests for a file\n    function getAccessRequestsCount(string memory _fileId) public view returns (uint256) {\n        return accessRequests[_fileId].length;\n    }\n\n    // Function to get details of a specific access request\n    function getAccessRequest(string memory _fileId, uint256 _index) public view returns (address, uint256, bool, uint256) {\n        require(_index < accessRequests[_fileId].length, \"Invalid access request index\");\n\n        AccessRequest memory request = accessRequests[_fileId][_index];\n        return (request.requester, request.timestamp, request.approved, request.approvalTimestamp);\n    }\n}\n",
  "sourcePath": "/Users/nguyennam/2023-2024/UOW/CSIT-953/blockchain/backend/solidity/store-file/contracts/StoreFile.sol",
  "compiler": {
    "name": "solc",
    "version": "0.8.12+commit.f00d7308.Emscripten.clang"
  },
  "schemaVersion": "3.4.16",
  "updatedAt": "2024-10-05T05:01:45.912Z",
  "networkType": "ethereum",
  "devdoc": {
    "kind": "dev",
    "methods": {},
    "version": 1
  },
  "userdoc": {
    "kind": "user",
    "methods": {},
    "version": 1
  }
}