{
  "contractName": "StoreFile",
  "abi": [
    {
      "anonymous": false,
      "inputs": [
        {
          "indexed": true,
          "internalType": "string",
          "name": "fileId",
          "type": "string"
        },
        {
          "indexed": true,
          "internalType": "address",
          "name": "requester",
          "type": "address"
        },
        {
          "indexed": false,
          "internalType": "uint256",
          "name": "approvalTimestamp",
          "type": "uint256"
        },
        {
          "indexed": false,
          "internalType": "bool",
          "name": "approved",
          "type": "bool"
        },
        {
          "indexed": false,
          "internalType": "string",
          "name": "fileHash",
          "type": "string"
        },
        {
          "indexed": false,
          "internalType": "string",
          "name": "emailMessage",
          "type": "string"
        }
      ],
      "name": "AccessApprovedOrRejected",
      "type": "event"
    },
    {
      "anonymous": false,
      "inputs": [
        {
          "indexed": true,
          "internalType": "string",
          "name": "fileId",
          "type": "string"
        },
        {
          "indexed": true,
          "internalType": "address",
          "name": "requester",
          "type": "address"
        },
        {
          "indexed": false,
          "internalType": "uint256",
          "name": "timestamp",
          "type": "uint256"
        },
        {
          "indexed": false,
          "internalType": "string",
          "name": "requestUserName",
          "type": "string"
        }
      ],
      "name": "AccessRequested",
      "type": "event"
    },
    {
      "anonymous": false,
      "inputs": [
        {
          "indexed": true,
          "internalType": "string",
          "name": "fileId",
          "type": "string"
        },
        {
          "indexed": false,
          "internalType": "string",
          "name": "fileName",
          "type": "string"
        },
        {
          "indexed": false,
          "internalType": "string",
          "name": "userName",
          "type": "string"
        },
        {
          "indexed": true,
          "internalType": "address",
          "name": "uploader",
          "type": "address"
        },
        {
          "indexed": false,
          "internalType": "uint256",
          "name": "timestamp",
          "type": "uint256"
        }
      ],
      "name": "FileUploaded",
      "type": "event"
    },
    {
      "inputs": [
        {
          "internalType": "string",
          "name": "",
          "type": "string"
        },
        {
          "internalType": "uint256",
          "name": "",
          "type": "uint256"
        }
      ],
      "name": "accessRequests",
      "outputs": [
        {
          "internalType": "address",
          "name": "requester",
          "type": "address"
        },
        {
          "internalType": "uint256",
          "name": "timestamp",
          "type": "uint256"
        },
        {
          "internalType": "bool",
          "name": "approved",
          "type": "bool"
        },
        {
          "internalType": "uint256",
          "name": "approvalTimestamp",
          "type": "uint256"
        },
        {
          "internalType": "string",
          "name": "requestUserName",
          "type": "string"
        }
      ],
      "stateMutability": "view",
      "type": "function",
      "constant": true
    },
    {
      "inputs": [
        {
          "internalType": "string",
          "name": "",
          "type": "string"
        }
      ],
      "name": "files",
      "outputs": [
        {
          "internalType": "string",
          "name": "fileName",
          "type": "string"
        },
        {
          "internalType": "string",
          "name": "userName",
          "type": "string"
        },
        {
          "internalType": "address",
          "name": "uploader",
          "type": "address"
        },
        {
          "internalType": "uint256",
          "name": "timestamp",
          "type": "uint256"
        }
      ],
      "stateMutability": "view",
      "type": "function",
      "constant": true
    },
    {
      "inputs": [
        {
          "internalType": "string",
          "name": "fileId",
          "type": "string"
        },
        {
          "internalType": "string",
          "name": "_fileName",
          "type": "string"
        },
        {
          "internalType": "string",
          "name": "userName",
          "type": "string"
        }
      ],
      "name": "uploadFile",
      "outputs": [],
      "stateMutability": "nonpayable",
      "type": "function"
    },
    {
      "inputs": [
        {
          "internalType": "string",
          "name": "_fileId",
          "type": "string"
        },
        {
          "internalType": "string",
          "name": "userName",
          "type": "string"
        }
      ],
      "name": "requestAccess",
      "outputs": [],
      "stateMutability": "nonpayable",
      "type": "function"
    },
    {
      "inputs": [
        {
          "internalType": "string",
          "name": "_fileId",
          "type": "string"
        },
        {
          "internalType": "address",
          "name": "_requester",
          "type": "address"
        },
        {
          "internalType": "bool",
          "name": "_approved",
          "type": "bool"
        },
        {
          "internalType": "string",
          "name": "_hash",
          "type": "string"
        }
      ],
      "name": "approveAccess",
      "outputs": [],
      "stateMutability": "nonpayable",
      "type": "function"
    },
    {
      "inputs": [
        {
          "internalType": "string",
          "name": "_fileId",
          "type": "string"
        }
      ],
      "name": "getAccessRequestsCount",
      "outputs": [
        {
          "internalType": "uint256",
          "name": "",
          "type": "uint256"
        }
      ],
      "stateMutability": "view",
      "type": "function",
      "constant": true
    },
    {
      "inputs": [
        {
          "internalType": "string",
          "name": "_fileId",
          "type": "string"
        },
        {
          "internalType": "uint256",
          "name": "_index",
          "type": "uint256"
        }
      ],
      "name": "getAccessRequest",
      "outputs": [
        {
          "internalType": "address",
          "name": "",
          "type": "address"
        },
        {
          "internalType": "uint256",
          "name": "",
          "type": "uint256"
        },
        {
          "internalType": "bool",
          "name": "",
          "type": "bool"
        },
        {
          "internalType": "uint256",
          "name": "",
          "type": "uint256"
        }
      ],
      "stateMutability": "view",
      "type": "function",
      "constant": true
    }
  ],
  "bytecode": "0x608060405234801561001057600080fd5b50611bd3806100206000396000f3fe608060405234801561001057600080fd5b506004361061007d5760003560e01c8063dfca35551161005b578063dfca3555146100d6578063e0f7734414610109578063e775576114610139578063f25117941461016c5761007d565b806316157f6c146100825780633b54b4841461009e57806392bb481a146100ba575b600080fd5b61009c600480360381019061009791906110ab565b6101a0565b005b6100b860048036038101906100b391906111b9565b610575565b005b6100d460048036038101906100cf9190611258565b6108ac565b005b6100f060048036038101906100eb9190611335565b6109fc565b60405161010094939291906113be565b60405180910390f35b610123600480360381019061011e9190611403565b610bef565b604051610130919061144c565b60405180910390f35b610153600480360381019061014e9190611403565b610c1a565b60405161016394939291906114ef565b60405180910390f35b61018660048036038101906101819190611335565b610d90565b604051610197959493929190611542565b60405180910390f35b600073ffffffffffffffffffffffffffffffffffffffff166000836040516101c891906115d8565b908152602001604051809103902060020160009054906101000a900473ffffffffffffffffffffffffffffffffffffffff1673ffffffffffffffffffffffffffffffffffffffff161415610251576040517f08c379a00000000000000000000000000000000000000000000000000000000081526004016102489061163b565b60405180910390fd5b600060018360405161026391906115d8565b9081526020016040518091039020905060005b81805490508110156103e75760008282815481106102975761029661165b565b5b906000526020600020906005020190503373ffffffffffffffffffffffffffffffffffffffff168160000160009054906101000a900473ffffffffffffffffffffffffffffffffffffffff1673ffffffffffffffffffffffffffffffffffffffff1614156103d3578060020160009054906101000a900460ff1615610351576040517f08c379a0000000000000000000000000000000000000000000000000000000008152600401610348906116d6565b60405180910390fd5b6000816003015414610398576040517f08c379a000000000000000000000000000000000000000000000000000000000815260040161038f90611742565b60405180910390fd5b6040517f08c379a00000000000000000000000000000000000000000000000000000000081526004016103ca906117d4565b60405180910390fd5b5080806103df90611823565b915050610276565b506001836040516103f891906115d8565b90815260200160405180910390206040518060a001604052803373ffffffffffffffffffffffffffffffffffffffff1681526020014281526020016000151581526020016000815260200184815250908060018154018082558091505060019003906000526020600020906005020160009091909190915060008201518160000160006101000a81548173ffffffffffffffffffffffffffffffffffffffff021916908373ffffffffffffffffffffffffffffffffffffffff1602179055506020820151816001015560408201518160020160006101000a81548160ff021916908315150217905550606082015181600301556080820151816004019080519060200190610507929190610eae565b5050503373ffffffffffffffffffffffffffffffffffffffff168360405161052f91906115d8565b60405180910390207f4e87694f2805c05cd6b225d695b14d5e72bef8962b52e6c429d050d268ae7d77428560405161056892919061186c565b60405180910390a3505050565b3373ffffffffffffffffffffffffffffffffffffffff1660008560405161059c91906115d8565b908152602001604051809103902060020160009054906101000a900473ffffffffffffffffffffffffffffffffffffffff1673ffffffffffffffffffffffffffffffffffffffff1614610624576040517f08c379a000000000000000000000000000000000000000000000000000000000815260040161061b906118e8565b60405180910390fd5b600060018560405161063691906115d8565b9081526020016040518091039020905060005b818054905081101561086a578473ffffffffffffffffffffffffffffffffffffffff1682828154811061067f5761067e61165b565b5b906000526020600020906005020160000160009054906101000a900473ffffffffffffffffffffffffffffffffffffffff1673ffffffffffffffffffffffffffffffffffffffff161415610857578181815481106106e0576106df61165b565b5b906000526020600020906005020160020160009054906101000a900460ff161561073f576040517f08c379a000000000000000000000000000000000000000000000000000000000815260040161073690611954565b60405180910390fd5b838282815481106107535761075261165b565b5b906000526020600020906005020160020160006101000a81548160ff0219169083151502179055504282828154811061078f5761078e61165b565b5b9060005260206000209060050201600301819055506000846107c957604051806060016040528060308152602001611b46603091396107e3565b604051806060016040528060288152602001611b76602891395b90508573ffffffffffffffffffffffffffffffffffffffff168760405161080a91906115d8565b60405180910390207fc1a989ad383e77a2c059b7db529be896bdea88781267cd61aebcd03f79b638ca428888866040516108479493929190611974565b60405180910390a35050506108a6565b808061086290611823565b915050610649565b506040517f08c379a000000000000000000000000000000000000000000000000000000000815260040161089d90611a13565b60405180910390fd5b50505050565b60405180608001604052808381526020018281526020013373ffffffffffffffffffffffffffffffffffffffff168152602001428152506000846040516108f391906115d8565b9081526020016040518091039020600082015181600001908051906020019061091d929190610eae565b50602082015181600101908051906020019061093a929190610eae565b5060408201518160020160006101000a81548173ffffffffffffffffffffffffffffffffffffffff021916908373ffffffffffffffffffffffffffffffffffffffff160217905550606082015181600301559050503373ffffffffffffffffffffffffffffffffffffffff16836040516109b491906115d8565b60405180910390207fffe4107079f83df8ac20cbb03184d54ad733985db3c0f86dad79aaab1b36167b8484426040516109ef93929190611a33565b60405180910390a3505050565b600080600080600186604051610a1291906115d8565b9081526020016040518091039020805490508510610a65576040517f08c379a0000000000000000000000000000000000000000000000000000000008152600401610a5c90611ac4565b60405180910390fd5b6000600187604051610a7791906115d8565b90815260200160405180910390208681548110610a9757610a9661165b565b5b90600052602060002090600502016040518060a00160405290816000820160009054906101000a900473ffffffffffffffffffffffffffffffffffffffff1673ffffffffffffffffffffffffffffffffffffffff1673ffffffffffffffffffffffffffffffffffffffff168152602001600182015481526020016002820160009054906101000a900460ff1615151515815260200160038201548152602001600482018054610b4590611b13565b80601f0160208091040260200160405190810160405280929190818152602001828054610b7190611b13565b8015610bbe5780601f10610b9357610100808354040283529160200191610bbe565b820191906000526020600020905b815481529060010190602001808311610ba157829003601f168201915b5050505050815250509050806000015181602001518260400151836060015194509450945094505092959194509250565b6000600182604051610c0191906115d8565b9081526020016040518091039020805490509050919050565b600081805160208101820180518482526020830160208501208183528095505050505050600091509050806000018054610c5390611b13565b80601f0160208091040260200160405190810160405280929190818152602001828054610c7f90611b13565b8015610ccc5780601f10610ca157610100808354040283529160200191610ccc565b820191906000526020600020905b815481529060010190602001808311610caf57829003601f168201915b505050505090806001018054610ce190611b13565b80601f0160208091040260200160405190810160405280929190818152602001828054610d0d90611b13565b8015610d5a5780601f10610d2f57610100808354040283529160200191610d5a565b820191906000526020600020905b815481529060010190602001808311610d3d57829003601f168201915b5050505050908060020160009054906101000a900473ffffffffffffffffffffffffffffffffffffffff16908060030154905084565b6001828051602081018201805184825260208301602085012081835280955050505050508181548110610dc257600080fd5b9060005260206000209060050201600091509150508060000160009054906101000a900473ffffffffffffffffffffffffffffffffffffffff16908060010154908060020160009054906101000a900460ff1690806003015490806004018054610e2b90611b13565b80601f0160208091040260200160405190810160405280929190818152602001828054610e5790611b13565b8015610ea45780601f10610e7957610100808354040283529160200191610ea4565b820191906000526020600020905b815481529060010190602001808311610e8757829003601f168201915b5050505050905085565b828054610eba90611b13565b90600052602060002090601f016020900481019282610edc5760008555610f23565b82601f10610ef557805160ff1916838001178555610f23565b82800160010185558215610f23579182015b82811115610f22578251825591602001919060010190610f07565b5b509050610f309190610f34565b5090565b5b80821115610f4d576000816000905550600101610f35565b5090565b6000604051905090565b600080fd5b600080fd5b600080fd5b600080fd5b6000601f19601f8301169050919050565b7f4e487b7100000000000000000000000000000000000000000000000000000000600052604160045260246000fd5b610fb882610f6f565b810181811067ffffffffffffffff82111715610fd757610fd6610f80565b5b80604052505050565b6000610fea610f51565b9050610ff68282610faf565b919050565b600067ffffffffffffffff82111561101657611015610f80565b5b61101f82610f6f565b9050602081019050919050565b82818337600083830152505050565b600061104e61104984610ffb565b610fe0565b90508281526020810184848401111561106a57611069610f6a565b5b61107584828561102c565b509392505050565b600082601f83011261109257611091610f65565b5b81356110a284826020860161103b565b91505092915050565b600080604083850312156110c2576110c1610f5b565b5b600083013567ffffffffffffffff8111156110e0576110df610f60565b5b6110ec8582860161107d565b925050602083013567ffffffffffffffff81111561110d5761110c610f60565b5b6111198582860161107d565b9150509250929050565b600073ffffffffffffffffffffffffffffffffffffffff82169050919050565b600061114e82611123565b9050919050565b61115e81611143565b811461116957600080fd5b50565b60008135905061117b81611155565b92915050565b60008115159050919050565b61119681611181565b81146111a157600080fd5b50565b6000813590506111b38161118d565b92915050565b600080600080608085870312156111d3576111d2610f5b565b5b600085013567ffffffffffffffff8111156111f1576111f0610f60565b5b6111fd8782880161107d565b945050602061120e8782880161116c565b935050604061121f878288016111a4565b925050606085013567ffffffffffffffff8111156112405761123f610f60565b5b61124c8782880161107d565b91505092959194509250565b60008060006060848603121561127157611270610f5b565b5b600084013567ffffffffffffffff81111561128f5761128e610f60565b5b61129b8682870161107d565b935050602084013567ffffffffffffffff8111156112bc576112bb610f60565b5b6112c88682870161107d565b925050604084013567ffffffffffffffff8111156112e9576112e8610f60565b5b6112f58682870161107d565b9150509250925092565b6000819050919050565b611312816112ff565b811461131d57600080fd5b50565b60008135905061132f81611309565b92915050565b6000806040838503121561134c5761134b610f5b565b5b600083013567ffffffffffffffff81111561136a57611369610f60565b5b6113768582860161107d565b925050602061138785828601611320565b9150509250929050565b61139a81611143565b82525050565b6113a9816112ff565b82525050565b6113b881611181565b82525050565b60006080820190506113d36000830187611391565b6113e060208301866113a0565b6113ed60408301856113af565b6113fa60608301846113a0565b95945050505050565b60006020828403121561141957611418610f5b565b5b600082013567ffffffffffffffff81111561143757611436610f60565b5b6114438482850161107d565b91505092915050565b600060208201905061146160008301846113a0565b92915050565b600081519050919050565b600082825260208201905092915050565b60005b838110156114a1578082015181840152602081019050611486565b838111156114b0576000848401525b50505050565b60006114c182611467565b6114cb8185611472565b93506114db818560208601611483565b6114e481610f6f565b840191505092915050565b6000608082019050818103600083015261150981876114b6565b9050818103602083015261151d81866114b6565b905061152c6040830185611391565b61153960608301846113a0565b95945050505050565b600060a0820190506115576000830188611391565b61156460208301876113a0565b61157160408301866113af565b61157e60608301856113a0565b818103608083015261159081846114b6565b90509695505050505050565b600081905092915050565b60006115b282611467565b6115bc818561159c565b93506115cc818560208601611483565b80840191505092915050565b60006115e482846115a7565b915081905092915050565b7f46696c6520646f6573206e6f7420657869737400000000000000000000000000600082015250565b6000611625601383611472565b9150611630826115ef565b602082019050919050565b6000602082019050818103600083015261165481611618565b9050919050565b7f4e487b7100000000000000000000000000000000000000000000000000000000600052603260045260246000fd5b7f41636365737320616c7265616479206772616e74656400000000000000000000600082015250565b60006116c0601683611472565b91506116cb8261168a565b602082019050919050565b600060208201905081810360008301526116ef816116b3565b9050919050565b7f41636365737320616c72656164792072656a6563746564000000000000000000600082015250565b600061172c601783611472565b9150611737826116f6565b602082019050919050565b6000602082019050818103600083015261175b8161171f565b9050919050565b7f416363657373207265717565737420616c7265616479206d6164652c2070656e60008201527f64696e6720617070726f76616c206f722072656a656374696f6e000000000000602082015250565b60006117be603a83611472565b91506117c982611762565b604082019050919050565b600060208201905081810360008301526117ed816117b1565b9050919050565b7f4e487b7100000000000000000000000000000000000000000000000000000000600052601160045260246000fd5b600061182e826112ff565b91507fffffffffffffffffffffffffffffffffffffffffffffffffffffffffffffffff821415611861576118606117f4565b5b600182019050919050565b600060408201905061188160008301856113a0565b818103602083015261189381846114b6565b90509392505050565b7f4f6e6c792075706c6f616465722063616e20617070726f766520616363657373600082015250565b60006118d2602083611472565b91506118dd8261189c565b602082019050919050565b60006020820190508181036000830152611901816118c5565b9050919050565b7f5265717565737420616c72656164792070726f63657373656400000000000000600082015250565b600061193e601983611472565b915061194982611908565b602082019050919050565b6000602082019050818103600083015261196d81611931565b9050919050565b600060808201905061198960008301876113a0565b61199660208301866113af565b81810360408301526119a881856114b6565b905081810360608301526119bc81846114b6565b905095945050505050565b7f4163636573732072657175657374206e6f7420666f756e640000000000000000600082015250565b60006119fd601883611472565b9150611a08826119c7565b602082019050919050565b60006020820190508181036000830152611a2c816119f0565b9050919050565b60006060820190508181036000830152611a4d81866114b6565b90508181036020830152611a6181856114b6565b9050611a7060408301846113a0565b949350505050565b7f496e76616c696420616363657373207265717565737420696e64657800000000600082015250565b6000611aae601c83611472565b9150611ab982611a78565b602082019050919050565b60006020820190508181036000830152611add81611aa1565b9050919050565b7f4e487b7100000000000000000000000000000000000000000000000000000000600052602260045260246000fd5b60006002820490506001821680611b2b57607f821691505b60208210811415611b3f57611b3e611ae4565b5b5091905056fe41636365737320726571756573742072656a656374656420666f7220796f7572207265717565737465642066696c652e41636365737320617070726f76656420666f7220796f7572207265717565737465642066696c652ea2646970667358221220a8d15891ed8847ffd7044cf300e9ea98f0a24ea1e61a4800753ba0d08de3ddc564736f6c634300080c0033",
  "immutableReferences": {},
  "source": "// SPDX-License-Identifier: GPL-3.0\npragma solidity ^0.8.12;\n\ncontract StoreFile {\n    struct File {\n        string fileName;\n        string userName;\n        address uploader;\n        uint256 timestamp;\n    }\n\n    // Struct to represent an access request\n    struct AccessRequest {\n        address requester;\n        uint256 timestamp;\n        bool approved;\n        uint256 approvalTimestamp;\n        string requestUserName;\n    }\n\n    // Mapping from file ID (string) to File struct\n    mapping(string => File) public files;\n\n    // Mapping from file ID (string) to array of access requests\n    mapping(string => AccessRequest[]) public accessRequests;\n\n    // Event emitted when a new file is uploaded\n    event FileUploaded(\n        string indexed fileId,\n        string fileName,\n        string userName,\n        address indexed uploader,\n        uint256 timestamp\n    );\n\n    // Event emitted when an access request is made\n    event AccessRequested(\n        string indexed fileId,\n        address indexed requester,\n        uint256 timestamp,\n        string requestUserName\n    );\n\n    // Event emitted when an access request is approved or denied, including the file hash\n    event AccessApprovedOrRejected(\n        string indexed fileId,\n        address indexed requester,\n        uint256 approvalTimestamp,\n        bool approved,\n        string fileHash,\n        string emailMessage\n\n    );\n\n    // Function to upload a new file record with a provided fileId\n    function uploadFile(\n        string memory fileId,\n        string memory _fileName,\n        string memory userName\n    ) public {\n        files[fileId] = File({\n            fileName: _fileName,\n            uploader: msg.sender,\n            timestamp: block.timestamp,\n            userName: userName\n        });\n\n        // Emit the event with all details for transparency\n        emit FileUploaded(fileId, _fileName, userName, msg.sender, block.timestamp);\n    }\n\n    // Function to request access to a file\n    function requestAccess(\n        string memory _fileId,\n        string memory userName\n    ) public {\n        require(files[_fileId].uploader != address(0), \"File does not exist\");\n\n        // Check if the user has already requested access\n        AccessRequest[] storage requests = accessRequests[_fileId];\n        for (uint256 i = 0; i < requests.length; i++) {\n            AccessRequest storage existingRequest = requests[i];\n\n            // If the requester already exists, check the status of their request\n            if (existingRequest.requester == msg.sender) {\n                require(!existingRequest.approved, \"Access already granted\");\n                require(existingRequest.approvalTimestamp == 0, \"Access already rejected\");\n                revert(\"Access request already made, pending approval or rejection\");\n            }\n        }\n\n        accessRequests[_fileId].push(AccessRequest({\n            requester: msg.sender,\n            timestamp: block.timestamp,\n            approved: false,\n            approvalTimestamp: 0,\n            requestUserName: userName\n        }));\n\n        // Emit the event for transparency\n        emit AccessRequested(_fileId, msg.sender, block.timestamp, userName);\n    }\n\n    // Function for the owner to approve or deny access and log a hash\n    function approveAccess(string memory _fileId, address _requester, bool _approved, string memory _hash) public {\n        require(files[_fileId].uploader == msg.sender, \"Only uploader can approve access\");\n\n        AccessRequest[] storage requests = accessRequests[_fileId];\n\n        // Find the request made by the requester\n        for (uint256 i = 0; i < requests.length; i++) {\n            if (requests[i].requester == _requester) {\n                require(!requests[i].approved, \"Request already processed\");\n\n                requests[i].approved = _approved;\n                requests[i].approvalTimestamp = block.timestamp;\n\n                string memory emailMessage = _approved\n                    ? \"Access approved for your requested file.\"\n                    : \"Access request rejected for your requested file.\";\n                // Emit event with the file hash and approval details for transparency\n                emit AccessApprovedOrRejected(\n                    _fileId,\n                    _requester,\n                    block.timestamp,\n                    _approved,\n                    _hash,\n                    emailMessage\n                );\n                return; // Exit the function after finding and processing the request\n            }\n        }\n\n        revert(\"Access request not found\");\n    }\n\n    // Function to get the number of access requests for a file\n    function getAccessRequestsCount(string memory _fileId) public view returns (uint256) {\n        return accessRequests[_fileId].length;\n    }\n\n    // Function to get details of a specific access request\n    function getAccessRequest(string memory _fileId, uint256 _index) public view returns (address, uint256, bool, uint256) {\n        require(_index < accessRequests[_fileId].length, \"Invalid access request index\");\n\n        AccessRequest memory request = accessRequests[_fileId][_index];\n        return (request.requester, request.timestamp, request.approved, request.approvalTimestamp);\n    }\n}\n",
  "sourcePath": "/Users/nguyennam/2023-2024/UOW/CSIT-953/blockchain/backend/solidity/store-file/contracts/StoreFile.sol",
  "compiler": {
    "name": "solc",
    "version": "0.8.12+commit.f00d7308.Emscripten.clang"
  },
  "schemaVersion": "3.4.16",
  "updatedAt": "2024-10-12T08:38:29.641Z",
  "networkType": "ethereum",
  "devdoc": {
    "kind": "dev",
    "methods": {},
    "version": 1
  },
  "userdoc": {
    "kind": "user",
    "methods": {},
    "version": 1
  }
}